:020000040800F2
:10000000008000202D970008257B0008277B000832
:10001000297B00082B7B00082D7B000800000000D6
:100020000000000000000000000000002F7B00081E
:10003000317B000800000000337B0008457B00088E
:100040007D9700087D9700087D9700087D97000840
:100050007D9700087D9700087D9700087D97000830
:100060007D9700087D9700087D9700087D97000820
:100070007D9700087D9700087D9700087D97000810
:100080007D970008000000007D970008417B000874
:10009000357B00087D9700087D9700087D97000854
:1000A0007D9700087D9700087D9700087D970008E0
:1000B0007D9700087D9700087D9700087D970008D0
:1000C0007D9700087D9700087D9700087D970008C0
:1000D0007D9700087D9700087D9700087D970008B0
:1000E0007D9700087D9700087D9700087D970008A0
:1000F0007D9700087D9700087D97000800000000AC
:10010000000000007D970008000000007D970008B7
:100110007D970008000000007D9700087D9700088B
:100120007D9700087D9700087D9700087D9700085F
:100130007D97000800000000000000007D97000887
:100140007D9700087D970008000000000000000077
:10015000000000000000000000000000000000009F
:100160000000000000000000000000007D97000873
:100170007D97000800000000000000000000000063
:10018000000000007D970008000000000000000053
:10019000000000000000000000000000000000005F
:1001A00000000000000000007D9700087D97000817
:1001B0007D9700087D9700087D97000800000000EB
:1001C000000000007D970008000000000000000013
:0801D0007D9700087D970008EF
:100200000348044B834202D0034B03B118477047A5
:10021000A8070020A8070020000000000548064BA2
:100220001B1AD90F01EBA301491002D0034B03B1F4
:1002300018477047A8070020A8070020000000000A
:1002400010B5064C237843B9FFF7DAFF044B13B11E
:100250000448AFF300800123237010BDA8070020DD
:100260000000000028D2000808B5044B1BB1044967
:100270000448AFF30080BDE80840CFE7000000006D
:10028000AC07002028D20008844641EA000313F09E
:1002900003036DD1403A41D351F8043B40F8043B8D
:1002A00051F8043B40F8043B51F8043B40F8043B50
:1002B00051F8043B40F8043B51F8043B40F8043B40
:1002C00051F8043B40F8043B51F8043B40F8043B30
:1002D00051F8043B40F8043B51F8043B40F8043B20
:1002E00051F8043B40F8043B51F8043B40F8043B10
:1002F00051F8043B40F8043B51F8043B40F8043B00
:1003000051F8043B40F8043B51F8043B40F8043BEF
:1003100051F8043B40F8043B403ABDD2303211D38F
:1003200051F8043B40F8043B51F8043B40F8043BCF
:1003300051F8043B40F8043B51F8043B40F8043BBF
:10034000103AEDD20C3205D351F8043B40F8043B8F
:10035000043AF9D2043208D0D2071CBF11F8013B8D
:1003600000F8013B01D30B8803806046704700BF53
:10037000082A13D38B078DD010F003038AD0C3F162
:100380000403D21ADB071CBF11F8013B00F8013B44
:1003900080D331F8023B20F8023B7BE7043AD9D303
:1003A000013A11F8013B00F8013BF9D20B780370D8
:1003B0004B7843708B7883706046704738B505463C
:1003C0000346800702D12BE09A0708D01846013374
:1003D0000278002AF8D100F03FF9284638BD42786B
:1003E000E2B11868A0F1013222EA000212F0803F67
:1003F0000BD1184653F8044FA4F1013222EA04024B
:1004000012F0803FF5D0027942B1184610F8013F52
:10041000002BFBD100F020F9284638BD1846DAE75A
:100420002A78DDE70CB410B59CB01EAB02910691A2
:100430006FF0004104910791084953F8042B05918E
:10044000002402A901931B9400F064F9029B1C7024
:100450001CB0BDE8104002B0704700BF0802FFFFAB
:100460000EB430B59CB06FF000411FAB0491079102
:100470000A4953F8042B029000240690084D08689E
:10048000019302A905951B9400F044F9029B1C708E
:100490001CB0BDE8304003B0704700BF0000002032
:1004A0000802FFFF032A30B412D941EA0004A4076E
:1004B00084460B4621D11946604653F8044B5CF83C
:1004C000045BA54219D1043A032AF4D860461946C0
:1004D000541E7AB1431E0139021901E09A4209D033
:1004E00013F8010F11F801CF6045F7D0A0EB0C0015
:1004F00030BC7047002030BC7047541EEAE700BF94
:1005000070B50F4B0F4DAB42A3EB050607D0B610ED
:10051000002455F8043B01349847A642F9D80CF062
:1005200083FE094D094B5E1BAB424FEAA60606D07F
:10053000002455F8043B01349847A642F9D870BD11
:100540003CD800083CD800083CD8000844D8000833
:10055000000000000000000000000000000000009B
:10056000000000000000000000000000000000008B
:10057000000000000000000000000000000000007B
:1005800030B490F800F020F007016FF0000C10F08C
:10059000070491F820F040F048804FF000046FF01D
:1005A0000700D1E9002391F840F000F1080082FA39
:1005B0004CF2A4FA8CF283FA4CF3A2FA8CF34BBB04
:1005C000D1E9022382FA4CF200F10800A4FA8CF27D
:1005D00083FA4CF3A2FA8CF3E3B9D1E9042382FA4B
:1005E0004CF200F10800A4FA8CF283FA4CF3A2FA60
:1005F0008CF37BB9D1E9062301F1200182FA4CF298
:1006000000F10800A4FA8CF283FA4CF3A2FA8CF3FE
:10061000002BC6D0002A04BF04301A4612BAB2FA20
:1006200082F200EBD20030BC7047D1E9002304F025
:100630000305C4F100004FEAC50514F0040F91F85A
:1006400040F00CFA05F562EA05021CBF63EA0503F7
:1006500062464FF00004AAE780EA0102844612F0E5
:10066000030F4FD111F0030F32D14DF8044D11F0AB
:10067000040F51F8043B0BD0A3F101329A4312F05E
:10068000803F04BF4CF8043B51F8043B16D100BF37
:1006900051F8044BA3F101329A4312F0803FA4F1C8
:1006A00001320BD14CF8043BA24312F0803F04BF4F
:1006B00051F8043B4CF8044BEAD023460CF8013BBC
:1006C00013F0FF0F4FEA3323F8D15DF8044B704766
:1006D00011F0010F06D011F8012B0CF8012B002AA4
:1006E00008BF704711F0020FBFD031F8022B12F093
:1006F000FF0F16BF2CF8022B8CF8002012F47F4F4E
:10070000B3D1704711F8012B0CF8012B002AF9D155
:10071000704700BF2DE9F04FC3B00C4690460991D9
:1007200010930D9002F0A4F8036815931846FFF794
:1007300027FFA38914901A0603D52369002B01F023
:100740000D800023CDE92633119316930B930024DB
:100750000023CDE9123432AA2592934698F800304E
:10076000002B00F0AB80444604E014F8013F002B5E
:1007700000F08880252BF8D1B4EB080540F0858087
:100780002378002B00F09A804FF0000300228DF8B0
:10079000733063780A9204F101084FF0FF3A079230
:1007A00008F101089946A9F12003582B00F2938023
:1007B000DFE813F06603910091005F039100910060
:1007C00091009100910091007401590391007F0103
:1007D000A60391009F035900590059005900590080
:1007E0005900590059005900910091009100910061
:1007F0009100910091009100910091007103060118
:100800009100060191009100910091005203910026
:1008100091009E02910091009100910091000103CE
:10082000910091007D07910091009100910091004D
:1008300091009100910091009100F602460106019D
:1008400006010601EF02460191009100E5029100C8
:10085000D70261021C0215029100EF01910086018E
:1008600091009100B007A9F13003002218F8019B14
:1008700002EB820203EB4202A9F13003092BF5D906
:100880000A9290E7B4EB080518D0269A279B01320C
:100890002B44072ACBE900852793269205DC0BF130
:1008A000080B0B9B2B440B936AE709990D9825AA1B
:1008B00001F07CFE30B90DF1C80BF2E7279B002B4D
:1008C00041F0C981099B9B895B0601F128840B9843
:1008D00043B0BDE8F08FB9F1000FEFD000238DF8E1
:1008E000A0908DF873309A4601230C93CDF83CA06C
:1008F00028AD0893079B279C13F0840321460E9391
:1009000000F004849DF8733023B32698002301304F
:100910000DF173020134CBF8002007284FF00102DB
:10092000CDE92604CBF8042000F36D840BF1080B0D
:1009300083B1269801301DAB0234CBF80030072874
:100940004FF00203CDE92604CBF8043000F34E84C7
:100950000BF1080B0E9B802B00F04D830C9BAAEB38
:100960000306002E00F38983079BDE0500F1E58274
:100970000C9BCBF804301C44269BCBF80050013371
:10098000072B2794269300F3D9830BF1080B079BC1
:100990005A0705D50A9B089A9D1A002D00F3428438
:1009A000DDE90A2308998A42ACBF9B185B180B93B8
:1009B000002C40F0A183002326930DF1C80BCDE657
:1009C000109B073323F00703F3E80256109326F039
:1009D000004319931895DDE91801C04B4FF0FF3221
:1009E000CDE9125606F09EFE002840F0B785DDE9FD
:1009F0001801BA4B4FF0FF3206F076FE044600288D
:100A000040F0AC85079B23F080030793002200236E
:100A10002846314606F05EFE002841F0CD809DF864
:100A20007330B9F1470FD4BFAD4DAE4D002B41F03F
:100A3000E8829A4603230C93CDF83CA0089359E72B
:100A4000079CA70640F17385109B073323F007032B
:100A50001A46596852F8083B10920A460029C0F21B
:100A60002A82BAF1000F9DF87300C1F2DC8053EACC
:100A7000020124F0800441F0D680BAF1000F01F0A9
:100A8000C68030238DF8C7305346012BB8BF0123F1
:100A9000CDE90743002840F02882D6E1109B53F8A7
:100AA000042B0A92002A80F223850A9A109352425C
:100AB0000A92079B43F00403079398F800306FE60F
:100AC000079B9A0600F19D81079B109813F0100573
:100AD00050F8041B41F00E82079E16F0400401F00E
:100AE0003080BAF1000F8DF873508BB22A46C1F2F4
:100AF000A98026F080040794002B00F076860A2B4C
:100B000075F10005C1F0318010901046764CCDF89B
:100B100020A032AD4FF0050C991841F10001A4FB63
:100B2000016727F0030606EB9706891B5E1A9A46B3
:100B3000964662F100034FF0CC3202FB06F204FB52
:100B40000322A6FB043603F001073244A7FB0C671F
:100B50007618BAF10A0F4FEA530306F130067EF118
:100B6000000E43EAC27305F8016D4FEA5202D3D278
:100B7000DDF820A032AB5B1B53450C93B8BF534646
:100B80000893002800F05D870133089300230F933A
:100B9000B0E6109C54F8045B00268DF87360002DBD
:100BA00000F05287BAF1000FC0F2E7855246314695
:100BB000284601F0E5FA9DF87330002801F04A81DB
:100BC000421B0C9222EAE2720892002B00F0E185AF
:100BD00013460133CDE90F64B24608938AE6079BBA
:100BE00043F02003079398F80030D9E5109A0021CC
:100BF00052F8040B8DF8731047F630038A45ADF8B0
:100C000074300346C0F28085079C24F0800444F0D1
:100C100002040794002800F07687109233480222DD
:100C20000F924FF0780932AD03F00F021B09825C7E
:100C300005F8012D43EA0173090953EA0102F3D1D2
:100C400032AB5B1B53450C93B8BF534608930F9BC5
:100C5000002B3FF44FAE089B0233DDE926040893D6
:100C6000079B13F08403214602460E9300F00A8688
:100C700000230F935EE6079CA5063FD4079B1098C0
:100C8000079C50F8042B13F0100340F03E8414F03E
:100C9000400100F04687BAF1000F8DF8733092B230
:100CA0001946C0F2B68524F0800307931090002AFD
:100CB0003BD1BAF1000F41F06080079B13F00103B4
:100CC000089300F0978530238DF8C730089B0C936C
:100CD0000DF1C700002305460F930BE6FFFFEF7FE2
:100CE00020D7000824D70008CDCCCCCC44D70008AE
:100CF000079B9E0643F0100440F10584109B0733C8
:100D000023F007031A46596800238DF87330134601
:100D1000BAF1000F53F8082B1093C0F2C58424F0E9
:100D20008003079352EA0103C3D032AD02F00703F8
:100D3000D20842EA4172C908303352EA0104284617
:100D400005F8013DF2D1079A12F001020F9240F02E
:100D5000A28532AB5B1B53450C93B8BF5346089337
:100D6000C8E5079B9A0640F18484109B0B9A1B6888
:100D70001A60D2175A60109B04331093EEE498F86F
:100D800000306C2B00F0D384079A42F010020792D7
:100D900006E5079B43F04003079398F80030FFE413
:100DA000109B00228DF87320924653F8042B8DF887
:100DB000A020109398E5079B980643F0100121D4DA
:100DC000109B181D109B00251C688DF87350AA45B8
:100DD00023462A46C0F2E28621F080010791002CCA
:100DE00000F003850A2C75F10005BFF48DAE303498
:100DF0008DF8C7405346012BB8BF012310900893CC
:100E000023E01946109B073323F007031C460020FC
:100E10005A6854F8083B8DF8730082451094C0F26C
:100E2000368421F08001079153EA020100F0DE844C
:100E30000A2B72F10001BFF469AE30338DF8C73070
:100E40005346012BB8BF0123089301230C930023C1
:100E50000F930DF1C7054DE5079B43F0080307937A
:100E600098F800309CE42B238DF8733098F800300C
:100E700096E4079B43F00103079398F800308FE452
:100E80009DF8732098F80030002A7FF489AC202266
:100E90008DF8732084E4079B43F010049B063FF514
:100EA000D3AD109B181D109B10901B68DA171146CC
:100EB0000029BFF6D6AD5B4262EB42022D21BAF1AA
:100EC000000F8DF87310C0F23C8424F080000A2BD0
:100ED000079072F1000080F05E8630338DF8C730E5
:100EE0005346012BB8BF01230893089B0133089395
:100EF000ABE7079B43F08003079398F800304FE47B
:100F0000424612F8019BB9F12A0F01F0EC80A9F1D9
:100F10003003092B98BF4FF0000A00F2D48712F873
:100F2000019B0AEB8A0A03EB4A0AA9F13003092B59
:100F3000F5D94AEAEA7A904635E4B9F1650F40F30B
:100F40000981DDE912010022002306F0B9FB002827
:100F500000F0A881269BB84ACBF800200133013469
:100F60000122072B27942693CBF8042000F3378522
:100F70000BF1080B1E9B119A934203DB079BDD07C5
:100F80007FF505AD149B159A1C44CBE90023269BE5
:100F900027940133072B269300F346850BF1080BAA
:100FA000119B5D1E002D7FF7F2AC102D269BA34FE9
:100FB00040F3B980DDF83490DDF824A0102605E078
:100FC0000BF1080B103D102D40F3AD8001331034B0
:100FD000072BCBE90076CDE92634F1DD25AA514671
:100FE000484601F0E3FA00287FF46CACDDE92634D2
:100FF0000DF1C80BE6E70A9B089A9E1A002E7FF7B0
:10100000ADAC102E269B8D4F24DD5A462146AB46B3
:101010000D9C099D04E0103E102E02F1080216DD21
:10102000013310311020072BCDE9263117605060B5
:10103000F1DD25AA2946204601F0B8FA00287FF400
:1010400041AC103E102EDDE9263132AAE8DC5D46C7
:101050000C46934601333444072BCDE92634CBF8B4
:101060000070CBF8046000F3D2840C9BAAEB03065B
:10107000002E0BF1080B7FF777AC102E269B6F4FDD
:101080002CDD5A462146B3460D9C2E464FF0100AE1
:10109000099D06E0ABF1100BBBF1100F02F1080245
:1010A00018DD013365481031072BC2E9000ACDE98C
:1010B0002631EFDD25AA2946204601F077FA0028DF
:1010C0007FF400ACABF1100BBBF1100FDDE9263162
:1010D00032AAE6DC35460C465E469346013334447C
:1010E000072BCDE92634CBF80070CBF8046000F371
:1010F000D8810BF1080B37E409990D9825AA01F066
:1011000055FA00283FF457ACFFF7DCBB0A9B089A5E
:101110009E1A002E00F33C819DF87330002B3FF4A3
:101120001DACFFF7F2BB01332C44072BCBF800704A
:10113000CBF80450CDE926347FF727AC09990D98F8
:1011400025AA01F033FA00287FF4BCAB279C0DF1EF
:10115000C80B1CE4119B269E012B04F1010406F12F
:1011600001060BF1080940F358810123072ECDE950
:101170002664CBF80050CBF8043000F39F81149B19
:10118000159A01361C44072EC9E90023CDE92664CF
:1011900000F3A18109F10809119BDDE9120103F1B6
:1011A000FF3A0022002306F08BFA002840F050811D
:1011B000013601355444072ECDE92664C9F80050A4
:1011C000C9F804A000F3378109F10809169BC9F892
:1011D000043001361C44072E20ABCDE92664C9F843
:1011E0000030ABDC09F1080BFFF7D1BB09990D9872
:1011F00025AA01F0DBF900287FF464AB279C0DF1F0
:10120000C80BFFF7A7BB09990D98179325AA01F002
:10121000CDF900287FF456AB279C179B0DF1C80B26
:10122000FFF786BB102D269B054F27DDDDF8349098
:10123000DDF824A010260AE060D7000850D200088C
:1012400040D20008103D102D0BF1080B16DD0133C4
:101250001034072BCBE90076CDE92634F2DD25AA40
:101260005146484601F0A2F900287FF42BAB103D0F
:10127000102DDDE926340DF1C80BE8DC01332C44D8
:10128000072BCBE90075CDE926347FF789AB0999A7
:101290000D9825AA01F08AF900287FF413AB279C4A
:1012A000FFF77EBB1E99002940F364830F9F119BBB
:1012B0009F42A8BF1F46002F0BDD269B01333C44F5
:1012C000072BCBE900572794269300F314850BF1E5
:1012D000080B0F9E002FA8BFF61B002E00F35E82A6
:1012E0001E9B119A934280F21782149A1599144406
:1012F000CBE90012269A27940132072A269200F39E
:101300006B840BF1080B119A0F99D31A561A9E424F
:10131000A8BF1E46002E0EDD269ACBF804600132CF
:101320000D443444072ACBF800502794269200F34A
:10133000EF840BF1080B002EACBF9D1B1D46002D4A
:101340007FF725AB102D269B824F7FF7ECAEDDF8A3
:101350003490DDF824A0102605E00BF1080B103DB9
:10136000102D7FF7E0AE01331034072BCBE9007668
:10137000CDE92634F1DD25AA5146484601F016F99B
:1013800000287FF49FAADDE926340DF1C80BE6E7BB
:10139000DDE90E320E92269A6F4F102E25DD0F9545
:1013A00058460D9DC3461024984604E0103E102E6A
:1013B00000F1080015DD01321031072AC0E9007480
:1013C000CDE92621F2DD099925AA284601F0EEF89B
:1013D00000287FF477AA103E102EDDE9262132A8DE
:1013E000E9DC0F9D4346D8468346501C74180728F5
:1013F000CDE92604CBF80070CBF8046000F39B82A3
:101400009DF873200BF1080B002A76D1002B40F0D9
:1014100034830E9B0F93FFF7A1BA079BD9073FF5C3
:10142000A4AE0123072ECDE92664CBF80050CBF8FB
:1014300004307FF7CBAE09990D9825AA01F0B6F8D4
:1014400000287FF43FAADDE926640DF1C809BDE656
:10145000119B012B7FF7BAAE112B3E4F40F3018356
:10146000DDF834B0102507E009F10809AAF1100AE7
:10147000BAF1100F40F3F58201361034072EC9E996
:101480000075CDE92664EFDD099925AA584601F0DB
:101490008DF800287FF416AADDE926640DF1C8094D
:1014A000E4E709990D9825AA01F080F800287FF457
:1014B00009AA279C0DF1C80BFFF756BA09990D9898
:1014C00025AA01F073F800287FF4FCA9DDE9266461
:1014D0000DF1C80953E609990D9825AA01F066F89F
:1014E00000287FF4EFA9DDE926640DF1C80953E671
:1014F000109398F80030FFF753B90E9A0F9200221C
:101500000E92FFF704BA109B181D109B00211B6858
:101510008DF873108A451A46C0F27A8124F080044F
:1015200007941090002B7FF400ACFFF7C2BB079A22
:101530001098D60650F8043B00F1CA84079C10901E
:1015400065064DBF43F3C032DA17079C1BB2114644
:10155000FFF784BA50D2000840D20008DDE912013A
:1015600002460B4606F0DEF8002840F03785079B60
:10157000BAF1FF3F43F480730E93139B00F0D883BE
:10158000B9F1670F00F04881B9F1470F00F04481CD
:10159000002BC0F2F883B9F1650F074603D0B9F10B
:1015A000660F00F07F85DDE91234CDE91A3445235A
:1015B000564608930AF1010A0223CDE9003A23AB0B
:1015C00004931FAB03931EAB02930D98DDE91A231E
:1015D00001F0B4FCB9F1660F054600EB0A0440F0D7
:1015E0008C842B78302B00F0E0841E9B1C44DDE9BA
:1015F0001A010022002306F063F8002840F0CF848F
:10160000239B9C4240F2A0854622089230215A1C1E
:1016100023921970239B9C42F9D81E9A0F925B1B50
:101620001193089B472B00F02584B9F1660F40F019
:101630006885079B0F9A03F00103002A43EA06031B
:1016400040F33C85002B40F0DF840F9B08930C9304
:101650004FF06609002F00F04183089B0133089387
:101660000E9B07932D238DF873304FF0000AFFF780
:1016700041B9079BDB0600F1C580079B5F0640F17F
:10168000C180109B0B9A1B681A80FFF774BB0A2B52
:1016900072F1000480F0EB8330338DF8C730012302
:1016A00007910893FFF7D1BB0794FFF73EBBAE4805
:1016B000079B13F0200100F01A81109B073323F0E1
:1016C00007031A46596852F8083B1092079C14F019
:1016D00001020F9200F0F18053EA010240F01781FD
:1016E000002292458DF87320C0F2228124F08004FC
:1016F000079440F01D81CDF830A0CDF83CA0CDF886
:1017000020A032ADFFF7F6B8079840F0020007902E
:10171000FFF783BA9548CBE70799C8073FF5E5ADD2
:101720000F99D31A561A9E42A8BF1E4603E6079B7E
:1017300043F02003079308F1010898F80030FFF701
:101740002FB80A2B72F1000080F0248230338DF81C
:10175000C730012307940893FFF7C7BB0D984021BA
:1017600001F08EF8099B18601861002800F0D484FD
:10177000099A40235361FEF7E4BF2846FEF700FFB5
:101780009DF873300C9020EAE0720892002B7FF4F1
:101790001FAACDE90F349A46FFF7ACB8102E269B4E
:1017A000734F40F3E8812246DDF834A0099C4FF0E6
:1017B000100905E00BF1080B103E102E40F3DA8102
:1017C00001331032072BCBE90079CDE92632F1DD68
:1017D00025AA2146504600F0E9FE00287FF472A8B1
:1017E000DDE926320DF1C80BE6E71090BAF1000FE3
:1017F00040F09D8400230C939A460F9332AD0893DA
:10180000FFF778B8109B0B9A1B681A60FFF7B3BA02
:1018100007941090FFF789BABAF1000F00F03482F4
:10182000002BC0F20784DDE91234CDE91A345646A4
:10183000074623AB04931FAB03931EAB0293022313
:1018400000930D980196DDE91A2301F077FB054618
:10185000079BDC0700F1EC821E9A239B0F925B1B17
:10186000D01C1193C0F297829642C0F20983934232
:1018700000F374830F9B0C9323EAE37208924FF0FA
:101880006709E7E60A9B089E9E1B002E13DC0E9B51
:101890000F93FFF74FB8302B00F0AE8030230238A3
:1018A00005F8013C32AB1B1A53450C93B8BF5346A5
:1018B0000893FFF70FBA02236EE50F9A8DF8732095
:1018C000BAF1000FFFF6AFA9079A22F08002079243
:1018D00053EA01027FF4A7A9BAF1000F7FF4A3A98C
:1018E000CDF830A0CDF820A032ADFFF703B8109AA4
:1018F00052F8043B1092079A12F010027FF4E6AE01
:10190000079911F040011CBF9BB21146DEE6302260
:101910008DF87420002292458DF87320079A8DF877
:101920007590A8BF22F0800242F0020207920222C4
:101930000F92FFF778B909990D980F9325AA00F037
:1019400035FE00287EF4BEAF9DF87320279C0F9BC8
:10195000002A00F0CD800E9A0DF1C80BCDE90E02E1
:101960002698FEF7D4BF00BF30D7000844D7000840
:1019700050D20008269BBF4ACBF800200133013427
:101980000122072B27942693CBF8042000F3328101
:101990000BF1080B002975D1079B119A03F0010385
:1019A00013433EF4F4AF149B15991A19CBE90013B5
:1019B000269B27920133072B269300F36F810BF1AF
:1019C000080B1199CBF8005001338C18072BCDE987
:1019D0002634CBF804107EF7D8AFFFF7AFBB0999D8
:1019E0000D9825AA00F0E2FD00287EF46BAF279C3D
:1019F0000DF1C80BFFF7BEBA32AB5B1B53450C931E
:101A0000B8BF5346089300230F93FEF773BF09999D
:101A10000D9825AA00F0CAFD00287EF453AF279C3C
:101A20000DF1C80BFEF79ABF09990D9825AA00F091
:101A3000BDFD00287EF446AF279C0DF1C80BFFF7D3
:101A4000AFBA0F90FEF756BF5346062B28BF0623AA
:101A5000AA460893884D10940C93CDF83CA0FEF74D
:101A600049BF01365444072ECDE92664C9F80070F9
:101A7000C9F804A07FF7A8ABDDE40E9BCDE90E23E7
:101A8000FEF758BF149B15981A19CBE90003269B43
:101A900027920133072B269300F300810BF1080BEB
:101AA00000298EDA4E421031744F80F23F82DDF809
:101AB0003490DDF824A0102405E00BF1080B103E53
:101AC000102E40F3338201331032072BCBE9007420
:101AD000CDE92632F1DD25AA5146484600F066FDE3
:101AE00000287EF4EFAEDDE926320DF1C80BE6E703
:101AF000002B00F0A1800E9B2698CDE90E230DF15E
:101B0000C80BFEF717BFBAF1000F7FF486A810923A
:101B1000CDF830A0CDF820A04FF0780932ADFFF716
:101B20009AB8BAF1000F8DF87310FFF672AE079BEA
:101B3000109023F080030793002A7FF4F6A8FFF7A4
:101B4000B8B8BAF1000F8DF873400B462246C0F2C8
:101B50008980079D25F08005079500293FF445AE53
:101B60000A2974F10004BEF4CFAF30318DF8C710EC
:101B7000FFF740B9144601333444072BCDE926342E
:101B8000CBF80070CBF8046000F396800BF1080BE3
:101B9000FFF7A6BB07940846FEF7B8BF0A2C75F1FD
:101BA000000580F0968030348DF8C74007910123FE
:101BB00010900893FFF749B92D23B9F1470F8DF81D
:101BC0007330A24654DC2E4DCDF83CA003230C9379
:101BD00004230893FEF78EBE09990D9825AA00F0FC
:101BE000E5FC00287EF46EAE1E9B279C0DF1C80B11
:101BF000FFF789BB09990D9825AA00F0D7FC0028AA
:101C00007EF460AE1E99279C0DF1C80BC2E6031E40
:101C100018BF0123CDE90743CDF830A0CDF83CA093
:101C200032ADFEF767BE0A2B72F1000180F07C82B4
:101C30003033DBB2FEF726BF0E9B0F930DF1C80BBE
:101C4000FEF78CBE0A2B75F10005BEF45DAF303196
:101C50008DF8C710ABE709990D9825AA00F0A6FCEE
:101C6000FEF730BE0A2974F10004F0D3FEF74CBF32
:101C7000044DA9E760D7000858D7000850D20008E3
:101C800020D7000824D70008002BC0F2C981DDE965
:101C900012345746CDE91A340126CAE509990D9840
:101CA00025AA00F083FC00287EF40CAEDDE9263284
:101CB0001E990DF1C80BF3E609990D9825AA00F0BD
:101CC00075FC00287EF4FEAD279C0DF1C80BFFF7D4
:101CD00007BB109007911046FEF718BF9DF87330B0
:101CE000002B00F0EB80089B013308930E9B0793B9
:101CF000BA46FEF7FFBD09990D9825AA00F056FCDB
:101D000000287EF4DFAD279C0DF1C80BFFF7E1BA88
:101D100009990D9825AA00F049FC00287EF4D2AD5F
:101D20001E9B119A279CD31A0DF1C80BFFF703BB1A
:101D3000002B26DBDDE91234CDE91A3407464FF0DB
:101D4000060AB9F1650F3FF432AC00F33D81B9F1F9
:101D5000450F3FF42CAC23AB04931FAB03931EAB96
:101D60000293022300930D98CDF804A0DDE91A2315
:101D700001F0E4F8564605466AE500221146FEF7F2
:101D8000D4BF4FF0060ADDE912341A9304F1004380
:101D90001B932D27D5E70F9BA9F10209013B8DF875
:101DA00080901E930F9B2D22C3F10103092B8DF808
:101DB000812040F396800DF19304B74E22461046E1
:101DC000A6FB0312D20802EB8201A3EB41013031E2
:101DD00000F8011C19466329134600F1FF32EEDCBE
:101DE000303302F8013C831EA34280F087810DF15D
:101DF000810213F8011B02F8011FA342F9D103F578
:101E000084736B44843B1B1A20AA9B1A1693119A65
:101E1000169B012A13440C9340F3AE800C9B149A3A
:101E200013440C9323EAE373089300230F9311E404
:101E3000DDE91A0100220023AC1905F041FC00285D
:101E400040F00F81239BA34280F0788147220892C3
:101E5000FFF7DCBB1094002B00F099800AF101031E
:101E6000CDF830A0089382460F90FEF743BD07914E
:101E7000FEF74CBE0F9B03338DDB0F9B9E420ADAAD
:101E80000F9B013BA9F10209002B8DF880901E9356
:101E900021DB2B228AE7119B0F9A93425EDC079B82
:101EA000D9077FF5E7AC0F9B149A13440C9323EAF0
:101EB000E37308934FF06709FFF7CCBB0E9B0793C2
:101EC000BA46FEF717BD90464FF0000AFEF76BBC0E
:101ED0001446FEF7E8BF0F9B2D22C3F101038DF8D6
:101EE000812030338DF8833030238DF88230042305
:101EF00016938CE71946FEF765BFDDE91A0100224B
:101F0000002305F0DDFB28B9239B9C423FF67EAB06
:101F1000A3EB050A1E9B0F930F9B8DF88090013B4E
:101F2000002B1E93CDF844A0B3DA3BE701333244D3
:101F3000072BCDE92632CBF80070CBF804607FF791
:101F40003EAD09990D9825AA00F030FB00287EF4DB
:101F5000B9ACDDE926320DF1C80B32E5149A119BBC
:101F600013440F9A0C93002A6EDD23EAE37308935F
:101F70004FF06709FFF76EBB079A12F001020F924C
:101F80007FF44CAF23EAE3730893FFF763BBCDF80C
:101F900030A0CDF820A00F939A46FEF7ABBC631B90
:101FA00011931E9B0F93FFF744BBDDE91A0100223A
:101FB000002305F085FB002869D01E9B0F931C446D
:101FC000631B1193FFF735BBB9F1660F7FF4C3AE06
:101FD0004623089356460323FFF7EFBA079B23F0E7
:101FE00080030793139B13F000430F9340D02D23DE
:101FF000B9F1470F8DF873304FF0000A5CDC274DC4
:10200000E2E54FF0000ADFE5149B06EB02094B44C2
:102010000C9323EAE37308934FF06609FFF71ABBAA
:10202000DDE912341A9304F100431B932D27012696
:10203000FFF7FFBBDDE912341A9304F100431B9351
:1020400056462D27FFF7F5BB0F9B0C9AC3F10103F2
:102050001A4422EAE2730C9208934FF06709FFF7E3
:10206000F9BA1E9A0F92472223460892FFF7D7BA71
:102070009DF87330B9F1470FD4BF084D084D002BC0
:1020800042D19A4603230C930893FEF733BCCAF15E
:1020900001031E93FFF7AABACDCCCCCC28D70008F9
:1020A0002CD70008DDE9121246230893CDE91A1255
:1020B00056460323FFF781BA264D85E533B9012340
:1020C00008934FF066090C93FFF7C4BA149B03F111
:1020D000010909EB06030C9323EAE37308934FF01D
:1020E0006609FFF7B7BA109998F8013051F804ABB8
:1020F000109190464AEAEA7AFEF752BB0223169301
:1021000085E6DDF844A007E703230C9304234FF092
:10211000000A0893FEF7EEBB0D9A0C2313604FF0F4
:10212000FF330B93FEF7D3BB0794FEF7EFBC3023CE
:102130008DF8C730CDF820A0FEF787BE1E9A0F920B
:1021400047220892FFF76BBA5B1B11931E9B0F93FC
:10215000FFF76FBA2CD7000838B5074D074C2C1B7A
:10216000A41005D0013C55F8043D9847002CF9D146
:10217000BDE838400BF05EB848D8000844D80008E5
:1021800001F0FF01102A2BDB10F0070F08D010F828
:10219000013B013A8B422DD010F0070F42B3F6D12C
:1021A000F0B441EA012141EA014122F007047FF045
:1021B00000070023F0E80256083C85EA010586EA9C
:1021C000010685FA47F5A3FA87F586FA47F6A5FAD8
:1021D00087F68EB9EED1F0BC01F0FF0102F00702E4
:1021E00032B110F8013B013A83EA010313B1F8D18F
:1021F0000020704701387047002D06BF3546033870
:10220000073815F0010F07D1013015F4807F02BFA8
:10221000013015F4C03F0130F0BC0138704700BFF9
:10222000830730B546D08418844604E003F8011BC8
:102230009D0704D09C46A4456346F7D130BD013AC2
:102240000244A2EB0C02032A29D9CCB204EB0424E9
:102250000F2A04EB04442FD9A2F1100C2CF00F0C20
:1022600003F11005AC44C3E90044C3E90244103350
:102270006345F8D112F00C0F02F00F0E18D02EF0BB
:10228000030C9C44AEF104051A4642F8044B624527
:10229000FBD125F0030404330EF003022344002A8B
:1022A000CCD0C9B21A4403F8011B9342FBD130BD14
:1022B0007246F4E70346C6E79646E0E700000000F2
:1022C00002780B78012A28BF9A4240F0D8806DE945
:1022D000044540EA0104CDE902676FF0000C4FEAC3
:1022E00044721AB380EA010414F0070F6BD100F0B6
:1022F000070420F0070004F0030521F007014FEA6E
:10230000C505F0E8042314F0040FF1E804670CFAA3
:1023100005F462EA040266EA04060BD063EA0403E9
:10232000624667EA0407664604E000BFF0E804235B
:10233000F1E8046782FA4CF582EA0604A4FA8CF408
:102340006CBB83FA4CF583EA0705A5FA8CF595B9C1
:1023500050E9022351E9026782FA4CF582EA060449
:10236000A4FA8CF483FA4CF583EA0705A5FA8CF5F8
:102370002543DBD09CB92DBAB5FA85F424F00704C7
:1023800027FA04F1DDE9026723FA04F303F0FF0002
:1023900001F0FF01FDE80445A0EB0100704724BAFD
:1023A000B4FA84F424F0070426FA04F1DDE90267A4
:1023B00022FA04F202F0FF0001F0FF01FDE80445FB
:1023C000A0EB0100704714F0030F3CD110F00304A0
:1023D00028D150F8082B51F8083B82FA4CF582EAD4
:1023E0000305A5FA8CF55DB950F8042C51F8043CAE
:1023F00082FA4CF582EA0305A5FA8CF5002DE8D0A7
:102400002DBAB5FA85F424F0070423FA04F122FA70
:1024100004F202F0FF0001F0FF01FDE80445A0EB2B
:10242000010070474FEAC40420F0030050F8082B65
:1024300021F0030151F8083B0CFA04F462EA0402AB
:1024400063EA0403C9E710F003041DD0A1EB040103
:1024500020F00300E40750F8042B06D012D28B784A
:102460005FFAA2F4E41A06D12BB1CB785FFAB2F48A
:10247000E41A00D133B920465DF8104B7047A2EB47
:102480000300704701F1040150F8042BCC0721F040
:10249000030151F8043B48D824D222F07F4482FA49
:1024A0004CF594EA1325A5FA8CF50AD165B951F8D3
:1024B000043B84EA0204B4EB036F0ED150F8042B02
:1024C000EBE74FEA132355E035F07F454DD108780F
:1024D000FDE80445C0F1000070474FEA126203F0C6
:1024E000FF0347E002EA1C4482FA4CF594EA1345E4
:1024F000A5FA8CF50AD165B951F8043B84EA0204C7
:10250000B4EB034F0CD150F8042BEBE74FEA134325
:1025100030E015EA1C4528D10B884FEA124229E029
:102520004FEA124203EA1C4324E002F0FF0482FA5D
:102530004CF594EA1365A5FA8CF50AD165B951F802
:10254000043B84EA0204B4EB032F09D150F8042BB6
:10255000EBE74FEA13630DE015F0FF0F05D10B68B1
:102560004FEA122223F07F4304E04FF00000FDE821
:102570000445704712BA1BBA82FA4CF482EA03048B
:10258000A4FA8CF5B5FA85F402FA04F203FA04F31E
:102590004FEA1260FDE80445A0EB1360704700BFEE
:1025A000002301461A46184601F052BE2DE9F843B1
:1025B000154692682C68FAB180468946083401E0D5
:1025C0000834CFB16B68591E002B1746696013DDC4
:1025D00054F8046C002EF3D0334654F8082C4946C6
:1025E000404601F067FE431C07D0AA68921B1746BD
:1025F000AA600834002FE5D100200023C5E901338B
:10260000BDE8F88300207047024A0349034800F000
:102610000BB900BF28010020455000080800002029
:102620000C4B4168994210B5044601D002F00AFDF6
:10263000A168094B994202D0204602F003FDE168EF
:10264000064B994204D02046BDE8104002F0FABC87
:1026500010BD00BFC40700202C08002094080020F3
:10266000002070472DE9F8432A4C2B49DFF8AC9045
:10267000DFF8AC802B4FC4F8381100250423082262
:10268000294604F15C00284EE360C4E90055C4E922
:102690000455A5606566A561FFF7C2FD234B63671E
:1026A0000822294604F1C400C4E90749C4E909879E
:1026B000C4E91A55C4E91E552567C4F8CC50C4F8BE
:1026C0008050E662FFF7ACFD194BC4F8DC302946B8
:1026D00004F16803082204F59670C4F88430C4E954
:1026E0002298C4E92476C4E93455C4E93855C4F8BD
:1026F000D850C4F83451C4F8E850FFF791FD04F104
:10270000D003C4E93C98C4E93E76C4F8EC30BDE897
:10271000F88300BFC4070020092600087D43000895
:10272000A5430008E543000809440008090001002A
:1027300012000200F8B5254BD3F838310646002BBD
:102740003CD0234FD7E90134013B04D51DE05A1C8E
:1027500004F1680419D0B4F90C50013B002DF6D1F6
:102760001C4BE360C4E90155C4E904556566256066
:10277000A5610822294604F15C00FFF751FDC4E978
:102780000C55C4E911552046F8BD3D680DB12F46E2
:10279000D8E74FF4D671304600F072F8044680B1A5
:1027A0000423C0E900530C302946A0604FF4D072D6
:1027B0002546FFF735FD3C602F46C3E7FFF752FF84
:1027C000BFE70C2338603360DDE700BFC40700209B
:1027D000280100200100FFFF436B03B17047044B49
:1027E000044AD3F838314263002BF7D13AE700BFEF
:1027F000C407002021260008704700BF704700BFB3
:10280000024A0349002000F00FB800BF2801002051
:1028100005260008024A0349002000F005B800BF61
:1028200028010020612600082DE9F8430746884664
:1028300016464FF00009D6E90154013D10D4A38992
:10284000012B08D9B4F90E3001332146384602D0A5
:10285000C04749EA0009013D6B1C04F16804EED150
:102860003668002EE7D14846BDE8F883F03070475F
:10287000004870473806002000487047380600209E
:102880002DE9F04F01F10B05162D83B0064623D834
:10289000102900F2B48001F06DFD102518230220EC
:1028A000C64F3B44A3F108025C68944200F06C817F
:1028B0006368E268A16823F00303CA6023443046DA
:1028C00091605A6842F001025A6001F055FD0834E7
:1028D000204603B0BDE8F08F35F0070500F18F808A
:1028E000A94200F28C8001F045FDB5F5FC7FC0F0F7
:1028F000B9815FEA552E00F08980BEF1040F00F225
:1029000071814FEA951E0EF1390003B20EF1380EB7
:10291000DB00AA4F3B44A3F1080C5C68A44507D137
:102920000DE0002AE16880F229818C4507D00C4631
:10293000636823F003035A1B0F2AF2DD7046DFF8A9
:1029400080823C69444500F00681636823F0030CF3
:10295000ACEB05030F2B00F38A81002BC7E9048839
:1029600080F27481BCF5007FD7F804E080F012811A
:102970004FEADC03013319B24FEA5C1C012303FA6E
:102980000CF357F83120A2604EEA030E07EBC103A7
:10299000083BE360C7F804E047F83140D460831097
:1029A0004FF0010C0CFA03FCF44535D81CEA0E0F6D
:1029B00008D120F003004FEA4C0C1CEA0E0F00F186
:1029C0000400F8D007EBC00AD6468146DEF80C308A
:1029D0000BE0596821F003014A1B0F2A1C46DB68F3
:1029E00000F31081002A80F224819E45F1D109F183
:1029F000010919F0030F0EF1080EE7D162E10C2373
:102A000033600024204603B0BDE8F08F4FF400731C
:102A100040204FF03F0E7CE7BC68636823F0030959
:102A2000A94504D3A9EB05030F2B00F39780DFF82A
:102A300094B1DBF8002004EB09031032082002EB0C
:102A40000508009302F086FBD7F80814013102460E
:102A500005D008F1FF388044414201EA08084146A8
:102A60003046009201F08EFAB0F1FF3F009A8246A4
:102A700000F0198104EB0903834200F21281DBF8B4
:102A800004104144CBF8041002F1FF3C00F06D81CA
:102A9000D7F80804013000F0748104EB0903AAEBB5
:102AA00003031944CBF804101AF00703009300F055
:102AB0002E81C3F108018A44D0440A4408EA0C017B
:102AC000521A02EA0C013046019101F05BFA421CF5
:102AD00000F074810199A0EB0A0000EB0108DBF81B
:102AE0000420C7F808A048F001001144BC42CAF80D
:102AF0000400CBF8041015D0B9F10F0F40F2448157
:102B00006268A9F10C0020F0070002F00102024304
:102B10006260052322180F28C2E9013300F25681B2
:102B2000DAF80400DBF82C208A42DBF8302038BFCA
:102B3000CBF82C108A4238BFCBF83010544620F026
:102B40000308A845A8EB050301D30F2B06DC30468C
:102B500001F012FC55E7D7F804E020E7621943F0D2
:102B6000010345F0010565603046BA60536001F02D
:102B700003FC0834204603B0BDE8F08FA26823446C
:102B8000D16030468A609CE6DC68A3427FF490AE58
:102B90000230D4E6BCF5206F4FEA5C2279D3142AC8
:102BA00000F2C58002F15C031BB25B32DB00F91856
:102BB000FB58083999420AD19FE000BF3801002034
:102BC00040010020000900209B68994204D05A6807
:102BD00022F003026245F7D8D968C4E902318C605B
:102BE000DC60DCE6BEF1140F60D9BEF1540F00F2D8
:102BF000A8804FEA153E0EF16F0003B20EF16E0E83
:102C0000DB0086E6D4F808C03046661945F00105B9
:102C10006560CCF80C30C3F808C042F00103C7E986
:102C20000466C6E902887360625001F0A5FB0834AF
:102C3000E8E6214430464A6842F001024A6054F80E
:102C4000082FD3609A6001F097FBDBE6A44430467E
:102C5000DCF8043043F00103CCF8043001F08CFBC5
:102C60000834CFE6E808431C1BB2DB0018E6621903
:102C700043F0010145F0010565603046C7E90422D3
:102C8000C2E90288516044F80C3001F075FB083449
:102C9000B8E64FEA9C1202F139031BB23832DB006E
:102CA00085E7BC4259D0BC68606848E70EF15C001B
:102CB00003B20EF15B0EDB002BE65AF808395345E0
:102CC00040F0A38010F0030F00F1FF30F5D17B68D6
:102CD00023EA0C037B604FEA4C0C9C453FF69CAE0C
:102CE000BCF1000F04D197E64FEA4C0C09F104093E
:102CF0001CEA030FF8D0484664E692104FF0010C2E
:102D00000CFA02F24EEA020EC7F804E065E70AEB9D
:102D1000080101EA0C01521A02EA0C013046019145
:102D200001F030F9431C7FF4D5AE0099D7E6542A60
:102D30002ED84FEA1C3202F16F031BB26E32DB0059
:102D400035E7BEF5AA7F2ED84FEAD53E0EF17800C2
:102D500003B20EF1770EDB00DBE5DBF80410414433
:102D6000CBF8041002F1FF3C92E610EA0C0F7FF45E
:102D70008FAED7F808A0C84448F00100CAF8040094
:102D8000D0E6C7F808A48FE60123CAF80430DEE6CF
:102D9000B2F5AA7F24D84FEADC3202F178031BB2E5
:102DA0007732DB0003E740F254539E4523D8AB0C47
:102DB00003F17D0003F17C0EC300AAE5009BA3F1A3
:102DC00008029044A8EB0A08002188E604F10801F3
:102DD000304601F045F9DBF80410D7F808A09FE66B
:102DE00040F254539A420CD84FEA9C4202F17D03C0
:102DF000DB007C32DBE64FF47E737F204FF07E0EEB
:102E000087E54FF47E737E22D1E67B6863E700BFDF
:102E10002DE9F04F03690C69A34283B0C0F28A80A8
:102E2000013C01F1140500F1140855F8243058F85C
:102E3000242001339A428E4681464FEA840105EBF5
:102E4000840708EB840AB2FBF3F63AD3CDE9001508
:102E50000022AC46404613465CF8041B05681FFA86
:102E600081FB06FB0B22090C4FEA124B06FB01BB50
:102E700092B2A9B2891A19441FFA8BF3C3EB21430A
:102E800003EB154389B241EA0341674540F8041B4F
:102E90004FEA1B424FEA2343DED2DDE9001558F822
:102EA000013073B9AAF1040AD04504D307E0D04534
:102EB00004F1FF3403D25AF80439002BF7D0C9F8D3
:102EC00010407146484601F05DFE00282EDB414669
:102ED000002255F8040BD1F800C01FFA80FE1FFA3B
:102EE0008CF3A3EB0E031344020CC2EB234202EB60
:102EF0001C429BB243EA0243AF4241F8043B4FEA13
:102F00002242E6D258F8242008EB84036AB9043B35
:102F1000434504D807E0984504F1FF3403D253F841
:102F20000429002AF7D0C9F810400136304603B012
:102F3000BDE8F08F002003B0BDE8F08F2DE9F04F21
:102F4000816B9FB016461F46CDE904672B9D044652
:102F500041B1C26B4A60012393408B6001F03CFB9E
:102F60000023A363B7F10009B4BF012300232B6042
:102F7000B34BBCBF29F00049CDF8149033EA0903E4
:102F800000F0A380DDE90423104619460022002347
:102F9000CDE9020104F094FB824668B12A9A01232C
:102FA00013602C9B13B12C9AA64B1360A64B07936E
:102FB00007981FB0BDE8F08F1CAB01931DAB0093C9
:102FC0002046DDE9022301F03DFF5FEA1955DDF8F7
:102FD0007080099040F08F801D9D454405F232437A
:102FE000202B40F32C82C3F1400309FA03F905F2C8
:102FF000124326FA03F349EA030004F07FF80122A2
:10300000013DA1F1F8731092194600228F4B03F095
:1030100037FF85A3D3E9002304F0EAF884A3D3E9BA
:10302000002303F02FFF064628460F4604F076F8EB
:1030300081A3D3E9002304F0DBF802460B463046B7
:10304000394603F01FFF06460F4604F081FB0022BD
:103050008146089000233046394604F03BFB0028A7
:1030600040F01381A8EB0508089D162D08F1FF3BE1
:1030700000F2F680764A02EBC503D3E90023DDE9CE
:10308000020104F027FB002840F0D381B8F1000FC3
:1030900040F38C850D90AB440C950A9000230B9364
:1030A000289B092B3BD8052BC4BF043B2893289BA6
:1030B000A3F10203CCBF00250125032B31D8DFE8A3
:1030C00013F0F002ED02E202C7012A9AC9F31309D4
:1030D00042F20F7359EA0609136019D12C9B002B99
:1030E00000F041875B4B079308332C9A07981360D5
:1030F0001FB0BDE8F08FDDE90201C1F3130343F017
:103100007F53A5F2FF35CDF840A043F440137BE791
:103110002C9B002B40F098814F4B079348E70023EE
:1031200028930025E5632946204601F02FFA0790F1
:10313000002800F0B286079BA3631D9B002BC0F202
:10314000B280089A0E2A00F3AE80414B03EBC20313
:10315000D3E90067DDE9028932463B4640464946ED
:10316000CDE9046704F06EF904F0F2FA054603F0C5
:10317000D5FF32463B4604F03BF80B460246494633
:10318000404603F07DFE05F13003079D05F8013B45
:103190004FF0FF3A02944FF001095446DDE904ABC9
:1031A0001DE052465B463046394604F04BF904F0C8
:1031B000CFFA804603F0B2FF52465B4604F018F89F
:1031C00009F101090B4602463946304603F058FE24
:1031D00008F13003A14505F8013B00F045851F4B80
:1031E000002204F005F80022002306460F4604F0F2
:1031F00067FA0028D5D0089F029C0137AB46099991
:10320000204601F0E9F900238BF800302A9B1F606B
:103210002C9B002B3FF4CCAE0798C3F800B01FB036
:10322000BDE8F08FAFF3008061436F63A787D23FA3
:10323000B3C8608B288AC63FFB799F501344D33FA5
:103240000000F07F61D7000860D700080000F83F59
:1032500070D2000864D7000870D70008000024402E
:1032600001230D93BBF1000FC0F2DD8000230A9310
:10327000089B002B80F2D4800A9A089BD21A5B42EA
:103280000B9300230A920C930AE7484603F046FF8B
:1032900032463B4604F014FA00287FF4E3AE09F10D
:1032A000FF330893DEE64FF0FF3A2995CDF850A0A2
:1032B000109A002A40F0F8811C9B0B9FC3F1360343
:1032C0000A9A01212046D5189B4401F0A3FA0A9AD4
:1032D0000646002A40F084830B9B002B00F0F98304
:1032E000002F40F0DD830B9A0999204601F076FB10
:1032F000012309900B930121204601F08BFA0C9BCE
:103300000290002B40F00783289B012B40F38E8313
:103310000120584410F01F0000F0CE81C0F12003BE
:10332000042B40F39C830A9BC0F11C00034405441A
:103330000A938344002D05DD09992A46204601F0B1
:10334000ADFB0990BBF1000F05DD02995A462046FE
:1033500001F0A4FB02900D9B002B40F0F282BAF129
:10336000000F40F3B3820B9B002B40F00082089FBC
:103370000137DDF81C80DDF824B0DDF80890012568
:1033800007E0594600230A22204601F02FF90135B3
:10339000834649465846FFF73BFD554500F130004E
:1033A00008F8010BEDDB079BCDF824B0BAF1000F54
:1033B0000AF1FF3503F10102D8BF002505EB020A2F
:1033C0008146002509990122204601F067FB0299F8
:1033D000099001F0D7FB002840F37E83079A02E0B2
:1033E000924500F08483D3460AF1FF3A1BF8013C72
:1033F000392BF5D001338AF800300299204601F0CC
:10340000EBF8002E3FF4FBAE2DB1B54203D02946B8
:10341000204601F0E1F83146204601F0DDF8EEE605
:103420009B440C933AE6C8F101030A934FF0000B5A
:103430001EE7089B013B089300230D9312E7C3F19D
:10344000200306FA03F0D8E59F4B079303334CE6BD
:1034500001231293299B089A134403F1010A56464B
:10346000012E1493B8BF0126172E40F36C8501225C
:1034700004235B0003F11400B042114602F1010283
:10348000F7D9E163204601F081F80790002800F0A9
:103490000485BAF10E0FA06300F22481002D00F024
:1034A0002181089A002A40F35883884902F00F03CB
:1034B00001EBC303D105D3E900674FEA221540F1C0
:1034C000F183834BDDE90201D3E9082303F0BAFF5E
:1034D000CDE90E0105F00F054FF0030985B1DFF8C6
:1034E000F081EA0740F1E48030463946F8E80223EB
:1034F00003F07EFE6D1009F1010906460F46F0D17A
:10350000DDE90E0132463B4603F09CFFCDE90E019A
:103510000D9B53B1DDE90E676E4B002230463946F4
:1035200004F0D8F8002840F06B84484603F0F6FD1C
:10353000DDE90E2303F05CFE674B002203F0A2FCE2
:103540000646A1F15077BAF1000F00F0E382089B24
:103550001B93CDF854A05D4B15991A9303EBC1034F
:1035600053E90212CDE91867DDE90E56CDE91612CE
:103570002846314604F0ECF800F130035FFA83F896
:1035800003F0CCFD0B4602463146284603F078FC9A
:10359000079B0F4612995D1C06460E95002900F008
:1035A000B483DDE916234D49002003F04BFFDDE92C
:1035B000182303F065FCDDF81CC002460B46CDE97C
:1035C00012238CF8008032463B4604F0A1F8002814
:1035D00040F07784CDF858B00E94DDF854B0CDF8B3
:1035E00054A04FF00009AA46DDE912452CE009F18C
:1035F0000109D94580F2D081394B20462946002265
:1036000003F0F6FD364B002204460D46304639469F
:1036100003F0EEFD0F46064604F09AF8804603F0EC
:103620007DFD02460B463046394603F029FC08F181
:1036300030080AF8018B22462B4606460F4604F056
:1036400049F8002840F03B8432463B46214900209F
:1036500003F016FC22462B4604F03CF80028C6D0A6
:103660001B9E0E9C079A5546013602E0954200F0DB
:10367000F683AB4615F8013D392BF7D00133DBB2A9
:103680002B703746BBE501231293299B002B40F397
:10369000B681299B14939A461E46E5E600231293B1
:1036A000D8E600231293F0E70B9F03F2334307E6BB
:1036B0006D1008F1080814E71C230A9A1A441D44E7
:1036C0000A929B4436E600BF70D7000870D200080B
:1036D00060D300080000F03F00001C400000E03F05
:1036E000000024401D9B002BC0F24781089A0E2A3F
:1036F00000F34381A64B1A93089A1A9B03EBC2036B
:10370000D3E90023CDE90423299B002B80F2D18249
:10371000BAF1000F00F3CD8240F015829D4B0022DC
:10372000DDE9040103F064FD02460B46DDE9020118
:1037300003F0DAFF5146002840F00682DDF81CB0A5
:1037400031230BF8013B204600F046FF089F02376B
:1037500055E5314600230A22204600F047FF149B1E
:10376000002B064640F3E583DDF850A008950A9B40
:10377000002B05DD31461A46204601F08FF906463A
:103780000C9B002B40F05982B046079D05F1FF3B92
:103790000BEB0A030B93049BDDF824B003F0010349
:1037A0000C9302995846FFF733FB31468246584640
:1037B00001F0E8F9029907464246204601F002FA74
:1037C000C3680AF130090146002B36D10A905846E9
:1037D00001F0D8F90A990990204600F0FDFE099BF6
:1037E000002B58D1289B1BB90C9B002B00F08A831F
:1037F000002FC0F24F830B9BAA469D420AF8019B03
:1038000000F07B82594600230A22204600F0EEFE9B
:103810004645834631464FF000034FF00A022046EA
:1038200033D000F0E3FE4146064600230A2220463C
:1038300000F0DCFE55468046B3E72046CDF824B0C4
:1038400000F0CAFE002F06DB049B03F00102289B58
:103850001F433A432CD109990122204601F01EF959
:103860000299099001F08EF9002840F32F83B9F1F5
:10387000390F00F0F7820AF13109AB46089F0BF8C7
:10388000019B354601374646B7E500F0AFFE554689
:103890000646804685E7002FC0F20683289A174324
:1038A0000C9A174300F00083002BA4DDCDF824B060
:1038B000B9F1390F00F0D682AB46089F09F1010338
:1038C00035460BF8013B0137464696E5289B022B0F
:1038D0007FF749ADBAF1000F40F09181029953464C
:1038E0000522204600F082FE01460290099801F070
:1038F00049F9002840F38381DDF81CB00299312397
:103900000BF8013B204600F067FE089F0237002EAF
:103910007FF481AD73E41A460146204601F05EF85B
:10392000289B0290012B40F37B8100230C93029A89
:10393000136902EB8303186900F002FFC0F1200055
:10394000E7E40299099801F01DF90028BFF607ADD8
:1039500000230999089D0A22204600F047FE0B9B90
:103960000990013D002B7FF4F4AE149B002B40F333
:10397000D582089FDDF850A0FBE4129AB2B90A9BE9
:10398000002B71D10B9B002B7FD11D461E46B2E44C
:1039900070D20008000014401D9B0E9C002BDDE936
:1039A00015AB03DB089A0E2A7FF7A6AE289A012AE8
:1039B0007FF77EAC0B9B0AF1FF37BB42C0F2FF8062
:1039C000BAF1000FA3EB070780F2A5820121204680
:1039D0000A9D00F01FFFA5EB0A080646CDF82880D7
:1039E000BBF1000F7FF778AC0A9A5A451346A8BF7F
:1039F0005B46D21AED1A0A92ABEB030B6CE4002182
:103A0000E163204600F0C2FD0790002800F04582E7
:103A1000079BA363002D40F0FF801D9B002BC0F28D
:103A20006A8201221492299292465FE6049B002B3F
:103A30007FF46EAC059BC3F31303002B7FF468ACDB
:103A4000059B23F000431B0D1B05002B3FF460ACCE
:103A5000012301350BF1010B0C93184659E43FF497
:103A600069ACC0F13C0328E6BBF1000F00F0B48163
:103A70000A9A0B9E5A451346A8BF5B46D51AABEB74
:103A8000030B0A95002E3FF436AC0B9A0999204699
:103A900000F0A4FF00230A9D09900B931E462AE420
:103AA00031463A46204600F099FFDDF82490014661
:103AB0004A460646204600F0DBFE49468046204640
:103AC00000F08AFD0B9BCDF82480DB1B0B937FF469
:103AD0000AAC01230B930EE403D119F0010F7FF41C
:103AE0007DACD3461AF8013D302BFAD085E4079A15
:103AF00031230137137080E4484603F00FFBDDE902
:103B00000E2303F075FBB84B002203F0BBF9064609
:103B1000A1F15077B54B0022DDE90E0103F0B0F9B9
:103B200032463B468046894603F0F2FD002840F0CD
:103B3000A48140464946324607F1004303F0CAFDDE
:103B400000283FF4CFAD0021204600F045FD299B21
:103B5000DDF81CB05F42FFF752BB00F07881089B94
:103B6000A34A5D4205F00F0302EBC303D3E9002330
:103B7000DDE9020103F03CFB2D11CDE90E0100F05F
:103B8000DE819C4E4FF00209EB070CD5DDE90E01FA
:103B9000F6E8022303F02CFB6D10CDE90E0109F1CC
:103BA0000109F1D1B4E46D100836EDE7C8F1010365
:103BB0000A93089B0D909B460C93FFF76FBA0B9BE3
:103BC0000C9ADDF82880FB1A1A44012120460C9239
:103BD00000F020FE4346D34408EB0A0506460B9747
:103BE000002B3FF480AB0A9A5A451346A8BF5B46A8
:103BF000D21AED1A0A92ABEB030BFFF774BB0299D2
:103C0000204600F0E9FC299BDDF81CB05F42002E45
:103C10007FF401ACFFF7F3BA14952995AA4640E466
:103C2000049B002B7FF481AEDDE90412C2F3130381
:103C3000002B00F052810C9179E67168204600F06B
:103C4000A5FC0546002800F08781336902339A00FD
:103C500006F10C010C30FCF717FB29460122204627
:103C600000F01CFF804690E5029C02460B4603F0E4
:103C700009F9089FDDE90423013782468B463E4659
:103C800003F046FD48B9DDE904235046594603F0E8
:103C900017FD20B118F0010F01D0079AE9E4AB46F7
:103CA000FFF7ADBADDE902234FF00209CDE90E239B
:103CB00014E4079B01330E93DDE90256DDE904238A
:103CC0002846314603F0BEFB03F042FD804603F078
:103CD00025FADDE9042303F08BFA02460B46284659
:103CE000314603F0CDF8079A0E9D08F13003BAF182
:103CF000010F13707FF44EAAB7E7089FCDF824B0E8
:103D0000354601374646FFF75DBBDDE91823DDE99F
:103D1000160103F06DFA079B83F80080159B012BB9
:103D2000CDE9100123D0079B159ADDF8388003EB0D
:103D30000209314B00223046394603F059FA0F464A
:103D4000064603F005FD054603F0E8F93035024666
:103D50000B463046394603F093F808F8015BC84536
:103D600006460F46E5D10E9B5D1E159B1D44DDE901
:103D70001089224B00224046494603F083F8324620
:103D80003B4603F0A7FC002840F0948042464B4697
:103D90001A49002003F074F832463B4603F0B8FCA1
:103DA00080B91D9B002BFFF6EAAD089B0E2B3FF759
:103DB000E6AD1A9B089A03EBC207D7E90023CDE9C9
:103DC000042379E7AB46013D1BF8013C302BF9D0C9
:103DD0001B9F0137FFF713BA0B9E002E7FF455AEE1
:103DE0000A9DFFF788BA00BF00001C400000144085
:103DF00070D2000860D30008000024400000E03FBB
:103E0000BAF1000F3FF478AE149D002D7FF76AAC35
:103E1000089B013B0022304639461B93544B03F06C
:103E2000E7F906460F4609F10100CDE90E6703F0F8
:103E300075F932463B4603F0DBF94E4B002203F0A6
:103E400021F815950646A1F15077FFF784BBDDE90F
:103E500002234FF00209CDE90E23FFF759BB0136CB
:103E600031230DE4AA46089F079A392335460AF8FC
:103E7000013B01374646FFF7B6BADDF81CB03123E7
:103E80000BF8013B0021204600F0A6FB089F0237FB
:103E9000FFF7B5B9CDF824B0EFE4374B374800222F
:103EA00040F2AF1100F04CFB002BCDF824B03FF7EF
:103EB000D2ACE2E41B9E079A0136FFF7DABB0E9CF8
:103EC00055461B9FAB460137FFF799B97FF4D5AC38
:103ED00019F0010F7FF4CBACCFE4059B23F0004336
:103EE0001B0D1B05002B3FF421AD012301350BF108
:103EF000010B0C931BE5129B4BBB012314932993DD
:103F00009A463CE5B9F1390FCDF824B0AAD0002F7C
:103F10003FF7B1ACB1E45346FFF7D2B9289A022A71
:103F200003DC089F9A46FFF724BA0895DDF850A0F5
:103F3000D0E4289A0895022AF8DC9A4617E44FF054
:103F40000209FFF7E5BA0021E163FFF79BBA129B74
:103F500029939A4614932DE5074B08482A4640F2C8
:103F6000EF2100F0EDFA064B0793FFF721B800BFF1
:103F70000000244000001C4074D7000888D70008C7
:103F800064D7000838B5074D0022044608462A6069
:103F900002F05AFF431C00D038BD2B68002BFBD029
:103FA000236038BDC80A00202DE9F84306460820E2
:103FB000894601F0CFF8DFF89C800546304600F0D6
:103FC000D9F9D8F808305F6827F00307A7F1110482
:103FD000A4EB09042C44B4FBF5F4013C05FB04F408
:103FE000A54208DC00213046FFF7CCFFD8F80830A6
:103FF0003B44984205D0304600F0BEF90020BDE8B1
:10400000F88361423046FFF7BDFF01300FD0124AFE
:10401000D8F808303F1B47F001075F60136830464F
:104020001B1B136000F0A8F90120BDE8F8830021F4
:104030003046FFF7A7FFD8F80820831A0F2BDADDE8
:1040400043F001035360054B03491B68C01A086025
:10405000D1E700BF380100200409002040050020FE
:1040600000295BD0F8B50C46074600F083F954F8F8
:1040700004CC744DA4F108022CF00103D118A868F7
:104080004E68884226F003060CF0010E7ED0881997
:104090004E60406800F00100BEF1000F2FD154F8CF
:1040A000084C121B2344946805F1080C644562D047
:1040B000D2F80CE0C4F80CE0CEF8084000287FD01D
:1040C00043F0010050600B60B3F5007F2FD2D90898
:1040D00068685C090131012309B2A34003436B60A6
:1040E00055F83100906005EBC103083BD36045F8FB
:1040F0003120C2603846BDE8F84000F03DB970B9E3
:10410000334405F1080C8868604543F0010471D020
:10411000C968C16088605460D350D5E770474CF0DF
:104120000101B3F5007F44F8041CD350CFD3B3F59D
:10413000206F4FEA532045D2980900F1390109B2A6
:1041400000F13804C900681869580838884203D15A
:1041500057E08968884204D04C6824F003049C42EC
:10416000F7D8C868C2E9021082603846CA60BDE864
:10417000F84000F001B988BB1E44D1E90213CB60BE
:10418000996046F0010353609651B3E71E44BEF1B7
:10419000000F07D154F8083CD21A1E44D2E902138A
:1041A000CB60996046F001035360274BAA601B68FF
:1041B000B3429FD8254B38461968FFF7F5FE99E7BB
:1041C0003344A0E714280ED9542821D8180B00F145
:1041D0006F0109B200F16E04C900B4E743F00100B9
:1041E00050600B6086E700F15C0109B200F15B04EE
:1041F000C900A8E7C5E90422C2E902CC5460D35043
:1042000078E76E68A4100123A34033436B60A9E7ED
:10421000B0F5AA7F07D8D80B00F1780109B200F1F8
:104220007704C9008FE740F25451884206D8980CB1
:1042300000F17D0100F17C04C90084E74FF47E7138
:104240007E2480E73801002044050020000900207A
:1042500070B4164D2C681CB365681F2D23DC38B96B
:10426000AB1C0135656044F82310002070BC70471A
:1042700004EB850C0228CCF88820D4F888614FF034
:10428000010202FA05F246EA0206C4F88861CCF897
:104290000831E5D1D4F88C311343C4F88C31DFE711
:1042A000034C2C60D8E74FF0FF30DFE734090020E3
:1042B000380900202DE9F0478F681D46AF420B6892
:1042C0000C46164636D8B1F90CC01CF4906F0ED1CE
:1042D0003D46184631462A4600F09AF8A368DF1B8F
:1042E0002368A7602B4400202360BDE8F0874A695B
:1042F000096902EB42025F1A02EBD2726B1C521088
:104300003B44934292BF914699461A461CF4806FF3
:10431000804611D01146FEF7B3FA824600B32169F8
:104320003A46FBF7B1FFA38923F4906343F080037F
:10433000A38105E02F46CCE701F08AF8824658B108
:104340000AEB0703A9EB0707A760C4F810A0C4F89D
:10435000149023602F46BCE721694046FFF780FE9A
:10436000A3890C2243F04003C8F800204FF0FF302F
:10437000A381BAE7704700BF704700BF10B50C4675
:10438000B1F90E1000F0D0FE002803DB236D0344CA
:10439000236510BDA38923F48053A38110BD00BF02
:1043A000002070472DE9F0410C46B1F90C101F4672
:1043B000CB05054616460BD421F48051A1813B461E
:1043C000B4F90E1032462846BDE8F04100F0F6BEC2
:1043D000B4F90E100223002201F0DEF9B4F90C103A
:1043E000EAE700BF10B50C46B1F90E1001F0D4F9A0
:1043F000B4F90C30421C0EBF23F4805343F48053B5
:104400002065A38110BD00BFB1F90E1000F0ECBE15
:104410008842F0B514D98B18834211D9032A00EBD6
:10442000020166D802F1FF3C4AB16FEA0C0C0A4661
:104430009C4413F8011D02F8011D6345F9D1F0BD3C
:10444000032A0FD8034602F1FF3C002AF7D00CF1F3
:10445000010C013B8C4411F8012B03F8012F61453D
:10446000F9D1F0BD41EA00039B073ED10F2A64D980
:10447000A2F1100301F1100423F00F032031A44630
:10448000194400F1100E5CF8105C4EF8105C5CF8FA
:104490000C5C4EF80C5C5CF8085C4EF8085C5CF850
:1044A000045C4EF8045C0CF1100C8C450EF1100EFF
:1044B000E9D1E11812F00C0F034402F00F0E03F1E2
:1044C000100338D02EF00305043D1A1F5E198C46E8
:1044D0005CF8044B42F8044FB242F9D10431043382
:1044E00029442B440EF00302ADE702F1FF3C0346E2
:1044F000ADE741EA0304A4071F4602D002F1FF3CE6
:1045000093E7A2F1040E2EF003068E1B4FEA9E0ED7
:104510008C46644653F8045D4CF8045DB442F8D10F
:10452000CEEB8E7301EB830107EB83073B1F04394E
:1045300002F0030276E7724685E703469646C1E736
:1045400000B50B4C25681446EE681A4685B0034644
:104550000D464CB107490095CDE901143046064996
:1045600000F0CEFD00F052FE04490C46F3E700BF18
:1045700000000020B4D70008C4D70008C0D7000846
:1045800008B513460022FFF7DBFF00BF436C70B590
:1045900005460C464BB153F8240080B1026843F83D
:1045A00024200023C0E9033370BD2122042100F040
:1045B00035FE034668640028EDD1002070BD01215E
:1045C00001FA04F6721D9200284600F027FE00282A
:1045D000F3D0C0E90146E4E731B1436C4A6853F8CF
:1045E0002200086043F82210704700BF2DE9F04117
:1045F0000D6907460E461C4601F1140E0020DEF838
:1046000000108BB202FB03434FEA134C090C02FB70
:1046100001CC01309BB203EB0C4385424EF8043BC6
:104620004FEA1C44EBDC3CB1B368AB4207DD06EB60
:10463000850301355C6135613046BDE8F081716804
:1046400038460131FFF7A2FF8046A8B13269023235
:1046500006F10C0192000C30FBF716FE7B6C7268C1
:1046600053F82210316043F82260464606EB85037A
:1046700001355C613561DFE7024B03484246BA21F0
:10468000FFF75EFF74D70008F4D700082DE9F84360
:104690001746284A1E4608330C46092E82FB031291
:1046A0004FEAE3730546C3EB62033ADD4FF0010CBA
:1046B00000214FEA4C0C634501F10101F9DC284669
:1046C000FFF764FF014670B3089B4361092F4FF069
:1046D0000103036112DC0A340927BE420BDDF61B1D
:1046E000264414F8013B0A22303B2846FFF77EFFA0
:1046F000B4420146F5D10846BDE8F88304F1090843
:1047000004EB0709444614F8013B0A22303B2846D3
:10471000FFF76CFF4C450146F5D1B844A8F10804F9
:10472000DBE70021CBE70A46034B0448D321FFF720
:1047300007FF00BF398EE33874D70008F4D70008AC
:10474000B0F5803F034636BF030400201020B3F1CC
:10475000807F3CBF1B020830B3F1805F06D3B3F10A
:10476000804F0FD29A0012D4033070471A01B2F171
:10477000804F00F1040006D29B0108D45B00F3D403
:10478000202070471A46002AFBDB013070470230B8
:10479000704700BF03685907024607D0D8071DD4E9
:1047A00099072AD55B0813600120704799B279B93F
:1047B0001B0CD9B2A1B11020190701D104301B097B
:1047C000990712D0D90701D401305B0813607047F4
:1047D000D9B241B1180718D10420F0E70020704782
:1047E00018201B0AE8E70820FBE713F0040F4FEA44
:1047F000930106D002300B46E8E79B0813600220C5
:104800007047DB0804D120207047DB080320DDE778
:104810000330DBE738B5436C04460D464BB15868AE
:10482000B0B102685A6000220123C0E90323456148
:1048300038BD2122042100F0F1FC03466064002809
:10484000EDD1094B0948002240F24511FFF778FEEF
:104850001C220121204600F0E1FC0028F1D00122B9
:104860000223C0E90123DEE774D70008F4D700086B
:104870002DE9F04FD1F810801569A84585B00E4696
:10488000924605DB2A46534645468A4690461E46D2
:10489000DAF80830DAF8041005EB0804A342B8BFD0
:1048A0000131FFF773FE8446002800F08C8000F190
:1048B000140707EB840E774505D23B46002243F8E8
:1048C000042B9E45FBD8143606EB88080AF1140920
:1048D000464509EB850567D2A5EB0A03153B0AF1AE
:1048E000150A23F00303AA4594BF9B464FF0000B23
:1048F000CDF808E00394AE46E24605E0090C2BD162
:10490000B04507F104074CD956F8041B8DB2002DB1
:10491000F4D0CC463C46002301965CF8040B216899
:1049200086B28AB2000C05FB0622090C1A4405FB6C
:10493000001101EB124192B242EA0142E64544F80D
:10494000042B4FEA1143E8D807EB0B02019E53609A
:1049500056F8041C090CD3D03B68002248461D467B
:104960003C469446028801FB02C202EB15429BB210
:1049700043EA024344F8043B50F8043B25684FEAFD
:10498000134CABB201FB0C3303EB124386454FEAE9
:10499000134CE7D807EB0B02B045536007F104074F
:1049A000B2D8DDE902E4D446002C02DC05E0013C8B
:1049B00003D05EF8043D002BF9D06046CCF81040DF
:1049C00005B0BDE8F08F034B034862464FF4B17168
:1049D000FFF7B6FD74D70008F4D7000812F0030300
:1049E0002DE9F0411446074632D10E46A4102CD0D2
:1049F0003D6C002D35D004F001034FF00008641029
:104A00003BB92868B8B1054604F001036410002BD7
:104A1000F7D02A4631463846FFF72AFF36B17B6C7D
:104A2000716853F82120326043F8216074B1064662
:104A300028680028E7D12A4629463846FFF718FF9C
:104A40002860C0F800800546DEE73046BDE8F0810A
:104A5000013B0F4A52F823200023FFF7C7FD06460B
:104A6000C4E701213846FFF791FD054640B1012317
:104A700040F27122C0E90432002338640360BAE7CF
:104A8000044B05482A4640F24511FFF759FD00BF87
:104A900060D2000874D70008F4D700082DE9F04769
:104AA0000C4690462769A368496807EB62177D1C8E
:104AB0009D4206464FEA621904DD5B009D4201F10A
:104AC0000101FADC3046FFF761FD844600284ED034
:104AD000B9F1000F00F114000BDD09F105020CEB38
:104AE00082020346002143F8041B9342FBD100EBF2
:104AF0008900216904F1140318F01F0803EB8101F8
:104B00002DD0C8F1200986464FF0000A1A6802FA33
:104B100008F242EA0A024EF8042B53F8042B994299
:104B200022FA09FAF2D80B1B153B23F0030304F118
:104B30001502914238BF0023043340F803A0BAF1B4
:104B4000000F00D13D46736C6268CCF8105053F8EA
:104B500022102160604643F82240BDE8F087043807
:104B600053F8042B40F8042F9942F9D8EAE7034B95
:104B7000034862464FF4EF71FFF7E2FC74D7000878
:104B8000F4D700080B6984460069C01A15D10CF1EE
:104B9000140C14310CEB830210B401EB830301E01D
:104BA000944508D252F8044D53F8041D8C42F7D0B6
:104BB00004D24FF0FF3010BC70477047012010BC8A
:104BC000704700BF2DE9F04F13690E69F61A002EE9
:104BD00083B08946154614D101F1140702F114017E
:104BE00001EB830107EB830301E09F427ED253F880
:104BF000044D51F8042D9442F7D080F084800126B2
:104C000003E0FCDB00260D4691466968FFF7BEFC19
:104C10000146002800F084802F69C660D9F8100092
:104C200005F1140B05F1100201F1140A09F1140544
:104C300005EB80000BEB870ED0460023CDF804B0C7
:104C4000944655F8046B5CF8042F1FFA86FB94B267
:104C5000A4EB0B041C44330CC3EB124303EB2443BF
:104C6000A4B244EA0344A84248F8044B4FEA234361
:104C7000E7D82646A0EB0904153CDDF804B024F083
:104C8000030409F11509484538BF00240BEB040261
:104C9000043204EB0A05964505F10404104636D9A2
:104CA000AAEB0B0A00EB0A0C50F8045B13FA85F62A
:104CB0002B442D0C05EB26459BB243EA0546864561
:104CC000CCF800604FEA2543ECD80EF1FF339B1A75
:104CD00023F00303234426B953F8042D013F002A8F
:104CE000FAD008460F6103B0BDE8F08F0021FFF74E
:104CF0004DFC014668B101220023C0E904230846A7
:104D000003B0BDE8F08F2B464D4699467DE72B4614
:104D1000E1E70A46064B074840F23721FFF710FC4F
:104D20000A46034B034840F24521FFF709FC00BF48
:104D300074D70008F4D70008114B0B40A3F150734F
:104D4000002B03DD00221946104670475B42B3F189
:104D5000A07F4FEA235206DA4FF4002313410022CA
:104D6000194610467047A2F114031E2BDABF4FF00C
:104D70000042DA400122002319461046704700BF66
:104D80000000F07F2DE9F843066900F1140808EBF4
:104D90008606A6F1040956F8047C3846FFF7D0FCD5
:104DA000C0F120030A280B6033DDC845A0F10B02D7
:104DB00019D256F8083C22B3C2F12001974023FAD9
:104DC00001F007439340A6F1080247F07F55904554
:104DD00045F4401519D256F80C2CCA401343184616
:104DE0002946BDE8F8830B280AD007FA02F242F000
:104DF0007F5545F44015002318462946BDE8F88341
:104E0000002347F07F5545F4401518462946BDE874
:104E1000F883C0F10B0327FA03F2C84542F07F552F
:104E20003CBF56F8082CDA4000F1150328BF0022D9
:104E300007FA03F345F44015134318462946BDE825
:104E4000F88300BFF0B5012183B016461F46FFF777
:104E50009DFB0546002845D0C7F30A54C7F313034A
:104E60000CB143F48013002E019314D101A8FFF775
:104E700091FC019B6B6101212030296114B3089BD7
:104E8000A4F2334404441C60099BC0F1350018604F
:104E9000284603B0F0BD68460096FFF77BFCDDE9CD
:104EA000002330B1C0F1200103FA01F1C3400A43ED
:104EB0000193002B0CBF01210221C5E905232961C3
:104EC000002CDCD105EB8102A0F232431069089A74
:104ED0001360FFF735FC099BC0EB411018602846B2
:104EE00003B0F0BD034B04482A4640F20F31FFF7F0
:104EF00027FB00BF74D70008F4D700082DE9F04362
:104F000083B0884669468146FFF73CFF04460D465C
:104F1000404601A9FFF736FFD9F81030D8F8102025
:104F2000A3EB020CDDE900329B1A03EB4C13002BC0
:104F30000BDD05EB03573D4602460B46204629464E
:104F400002F080FA03B0BDE8F083C3EB033301EB5A
:104F500003594946F0E700BF172870B506460ADD39
:104F60000849094D0020002422462B4602F040F952
:104F7000013EF9D170BD054B03EBC003D3E9040139
:104F800070BD00BF0000F03F0000244060D2000868
:104F90000139491101F1010C116902F1140303EB0C
:104FA00081018B4200EB8C0C16D210B5A0F1040EDF
:104FB00053F8044B4EF8044F9942F9D8891A153921
:104FC00021F0030104300844844504D9002340F84B
:104FD000043B8445FBD810BD844505D9002340F827
:104FE000043B8445FBD87047704700BF03694A11F2
:104FF000934200F1140009DA00EB830302E053F856
:10500000042DA2B98342FAD80020704700EB820336
:10501000F8DD11F01F01F5D010B450F8224024FA49
:1050200001F28A40944208D0012010BC7047012050
:10503000704753F8042D002AF6D18342F9D8002096
:1050400010BC704770B5002935D006460C4610B12B
:10505000436B002B3AD0FDF7CFFBB4F90C3043B3D0
:105060002146304600F028F9E36A054633B1E1698C
:10507000304698470028B8BF4FF0FF35A3891B067C
:105080001CD4216B41B104F14003994202D0304657
:10509000FEF7E6FF00232363616C21B13046FEF783
:1050A000DFFF002363640023A381FDF7A7FB2846ED
:1050B00070BDFDF7A3FB0025284670BD2169304671
:1050C000FEF7CEFF216B0029DDD1E5E7FDF784FB7C
:1050D000C1E700BF024B01461868FFF7B3BF00BF2E
:1050E000000000200CB400B583B004AB53F8042BCF
:1050F000019300F0A5FC03B05DF804EB02B070472B
:105100000EB410B583B005AB064C53F8042B0193D5
:105110000146206800F094FC03B0BDE8104003B0E5
:10512000704700BF0000002038B50D46084C84468B
:10513000114628461A4600232360654601F07CFE8E
:10514000431C00D038BD2368002BFBD02B6038BD3A
:10515000C80A0020082802D14FF48050704708B5D3
:1051600000F026F8162303604FF0FF3008BD00BFA3
:1051700010B4034CD4F8E440A44610BC604700BF10
:105180004805002082B049B15AB16BB113780B6069
:105190001278101E18BF012002B0704701A9002A22
:1051A000F3D1104602B070476FF00100F4E700BF82
:1051B000014B1868704700BF0000002038B50D464D
:1051C000084C8446114628461A460023236065464B
:1051D00001F048FE431C00D038BD2368002BFBD0F3
:1051E0002B6038BDC80A002038B5074D00220446A0
:1051F00008462A6001F0F0FD431C00D038BD2B6842
:10520000002BFBD0236038BDC80A002008B506205B
:1052100000F074FB012001F02DFE00BF38B5A1FBAA
:10522000021454BBFDF72CFB054650B350F8042C78
:1052300022F00302043A242A10D8132A13D91B2A75
:10524000C0E9004416D9242AC0E902440ABFC0E9D3
:10525000044400F1100200F1180205E02146FCF7B9
:10526000DFFF284638BD02460023C2E900339360C1
:10527000284638BD00F10802F6E7FFF799FF0C2336
:1052800003600025284638BD10B4034CD4F8E04034
:10529000A44610BC604700BF4805002049B1FF2A62
:1052A00002D80A70012070478A2303604FF0FF3054
:1052B00070470846704700BFB1F90C20F8B51307D6
:1052C0000C46074649D4496842F400630029A3818B
:1052D0005FDDA66A002E3ED0002112F480523D68A8
:1052E000396062D1E16901233846B047461C024665
:1052F00069D0B4F90C30A66A580705D56368D21A8C
:10530000236B0BB1E36BD21AE16900233846B04737
:10531000411CB4F90C304AD139681D293FD82E4AB6
:10532000CA40D2073BD52269226023F40062A281E1
:10533000DE044FF00002626001D5002941D0216BEC
:105340003D6041B104F14003994202D03846FEF776
:1053500087FE002323630020F8BD0E69002EFAD0DB
:105360000D680E6092070CBF4B690023AD1B8B606C
:105370000CE0D4F824C0E1692B4632463846E047B9
:10538000B0F1000CA5EB0C05664406DD002DF0DC49
:10539000E1E7E16B00299CDCDDE7B4F90C3043F078
:1053A0004003A3814FF0FF30F8BD226DA4E72269CE
:1053B000226023F40062A281DB044FF000026260ED
:1053C000BDD52065BBE73B68002B92D01D2B01D0DB
:1053D000162BE2D13D60BEE70100402010B5044627
:1053E00082B008B1436B53B1B1F90C0008B902B0F7
:1053F00010BD204602B0BDE81040FFF75DBF01912F
:10540000FDF7EAF90199EFE7A0B138B50C4B1D683B
:1054100004460DB16B6B4BB1B4F90C0000B938BD4B
:1054200021462846BDE83840FFF746BF2846FDF72D
:10543000D3F9F1E7034A04490448FDF7F5B900BF81
:105440000000002028010020DD5300080800002093
:105450002DE9F84F1646002900F098800C4680464A
:1054600006F10B05FEF786FF54F8041C162DA4F177
:10547000080921F0030758D81025AE4258D8AF428A
:1054800062DABF4B9A6809EB070C6245DCF804004E
:1054900000F0928020F0010363445B68DB076AD46C
:1054A00020F003003B189D4249DDCB0712D454F88D
:1054B000083CA9EB030BDBF8043023F00302104493
:1054C00000EB070A554540F3F88007EB020A554503
:1054D00040F3CE8031464046FDF7D2F9064600281B
:1054E00000F0228154F8043C23F001034B44A0F166
:1054F0000802934200F0B6803A1F242A00F2D980B5
:10550000132A00F2A48003462246116819605168EC
:10551000596092689A6021464046FEF7A1FD4046D8
:10552000FEF72AFF3046BDE8F88F35F00705A4D511
:105530000C23C8F8003000263046BDE8F88F1F461F
:10554000DCE90223D3609A60D9F804307A1B0F2A71
:1055500003F0010309EB07001DD83B43C9F80430F1
:10556000436843F0010343604046FEF705FF2646CB
:105570003046BDE8F88FC907ACD454F8083CA9EB15
:10558000030BDBF8043023F003029EE7BDE8F84F7D
:105590001146FDF775B909EB05012B4342F00102F5
:1055A000C9F804304A60436843F00103436008319E
:1055B0004046FEF755FDD7E720F00300C21905F17C
:1055C000100C624580F29180CA0783D454F8082CED
:1055D000A9EB020BDBF8042022F00302104400EBDD
:1055E000070AD4453FF771AF5E46DBF80C1056F85A
:1055F000080F3A1F242AC160886000F2AE80132A87
:1056000040F2A9802168CBF808106168CBF80C1033
:105610001B2A00F2A88008340BF1100221681160E7
:1056200061685160A16891600BEB0501AAEB05026E
:1056300042F0010299604A60DBF8043003F0010394
:105640002B434046CBF80430FEF796FE90E72368E4
:105650000360636843601B2A3CD804F1080200F130
:10566000080352E750F8043C23F003031F446BE7A0
:105670003A1F5E46DBF80C3056F8081F242ACB6030
:10568000996022D8132A1ED92368CBF808306368A2
:10569000CBF80C301B2A3BD808340BF110032268DE
:1056A0001A6062685A60A2689A6034465746D946C2
:1056B0004AE72146FEF7ACFE2DE7DCE902133A1F6C
:1056C000CB609960D5E73346E9E721463046FEF7DF
:1056D0009FFEEAE7A3688360E368C360242A27D0BB
:1056E00004F1100200F110030FE709EB05019960C6
:1056F000531B43F001034B6054F8043C03F00103D7
:105700002B43404644F8043CFEF736FE26462FE77E
:10571000A368CBF81030E368CBF81430242A10D0FB
:1057200010340BF11803BAE74046FEF725FE02E7F6
:10573000236903616169416104F1180200F11803F2
:10574000E3E62369CBF818306369CBF81C301834D2
:105750000BF12003A3E7324660E721463046FEF70F
:1057600057FE074B60E7A168CBF81010E168CBF853
:105770001410242A06D010340BF118024EE700BF93
:10578000380100202269CBF818206269CBF81C2070
:1057900018340BF1200241E738B50D46084C844619
:1057A000114628461A4600232360654601F03CFB5B
:1057B000431C00D038BD2368002BFBD02B6038BDC4
:1057C000C80A002038B5D0F818410CB1002038BD07
:1057D00080210546FDF754F80246C5F8180130B19E
:1057E000031F7C3243F8044F9342FBD1EEE74FF0A6
:1057F000FF3038BD30B51F2983B0054609D8D0F831
:1058000018310C465BB153F8240043F8242003B050
:1058100030BD162303604FF0FF3003B030BD802150
:105820000192FDF72DF8019AC5F8180103460028EA
:10583000F1D0011F00F17C05002041F8040FA942BE
:10584000FBD1E0E71F2938B505461FD8D0F818214D
:105850000C466AB152F8213053B1012B06D0591CC5
:1058600010D0002142F8241020469847002038BD6F
:10587000284601F005F8224601462846BDE8384092
:1058800000F0E8BF16230360012038BD1623036033
:105890004FF0FF3038BD00BF1F292BD8D0F818219A
:1058A00038B50C4605469AB152F8243053B1591C0C
:1058B0000CD0012B08D00025204642F824509847F0
:1058C000284638BD012038BD032038BD022038BD30
:1058D0008021FCF7D5FF0246C5F8180138B1031F37
:1058E00000217C3043F8041F8342FBD1DCE74FF0FA
:1058F000FF3038BD4FF0FF30704700BF38B5144B54
:105900001F281D681ED8D5F81821044662B152F828
:1059100020304BB1012B05D0591C0FD0002142F88B
:1059200020109847002038BD284600F0A9FF2246E5
:1059300001462846BDE8384000F08CBF16232B6096
:10594000012038BD16232B604FF0FF3038BD00BF5B
:1059500000000020124B1F2870B51E6809D8D6F829
:10596000183104460D464BB153F8240043F8245037
:1059700070BD162333604FF0FF3070BD802130467C
:10598000FCF77EFF0346C6F818010028F3D0021F7B
:1059900000217C3042F8041F8242FBD1E4E700BFC3
:1059A0000000002038B50C4B1D68D5F818410CB12B
:1059B000002038BD80212846FCF762FFC5F8180199
:1059C00038B1031F00F17C0243F8044F9342FBD12E
:1059D000EEE74FF0FF3038BD0000002038B5174B20
:1059E0001F281D6827D8D5F8182104469AB152F807
:1059F000243053B1591C0CD0012B08D0002520466F
:105A000042F824509847284638BD012038BD03206D
:105A100038BD022038BD80212846FCF731FF024600
:105A2000C5F8180138B1031F00217C3043F8041F6A
:105A30008342FBD1DBE74FF0FF3038BD0000002090
:105A40002DE9F04FA9B0CDE904301C4600919246F3
:105A500018B1436B002B00F0F9850099B1F90C20C7
:105A60004B6E900400F1F48042F4005223F4005392
:105A70008A814B6612B2170740F1A580009B1B6913
:105A8000002B00F0A08002F01A020A2A00F0A98080
:105A900018AB0B930023CDE90C3303930DF1600B8E
:105AA0009AF80030002B00F0C780544604E014F848
:105AB000013F002B00F0A480252BF8D1B4EB0A05A0
:105AC00040F0A1802378002B00F0B68000264FF034
:105AD00000026378029604F1010A8DF827204FF046
:105AE000FF380AF1010AA3F12002582A00F2B78018
:105AF000DFE812F06803B500B5006303B500B50038
